{
  "_format": "hh-sol-artifact-1",
  "contractName": "Crowdsale",
  "sourceName": "contracts/Crowdsale.sol",
  "abi": [
    {
      "inputs": [
        {
          "internalType": "uint256",
          "name": "_rate",
          "type": "uint256"
        },
        {
          "internalType": "address",
          "name": "_wallet",
          "type": "address"
        },
        {
          "internalType": "contract IERC20",
          "name": "_token",
          "type": "address"
        }
      ],
      "stateMutability": "nonpayable",
      "type": "constructor"
    },
    {
      "inputs": [
        {
          "internalType": "address",
          "name": "owner",
          "type": "address"
        }
      ],
      "name": "OwnableInvalidOwner",
      "type": "error"
    },
    {
      "inputs": [
        {
          "internalType": "address",
          "name": "account",
          "type": "address"
        }
      ],
      "name": "OwnableUnauthorizedAccount",
      "type": "error"
    },
    {
      "anonymous": false,
      "inputs": [
        {
          "indexed": true,
          "internalType": "address",
          "name": "previousOwner",
          "type": "address"
        },
        {
          "indexed": true,
          "internalType": "address",
          "name": "newOwner",
          "type": "address"
        }
      ],
      "name": "OwnershipTransferred",
      "type": "event"
    },
    {
      "inputs": [],
      "name": "buyTokens",
      "outputs": [],
      "stateMutability": "payable",
      "type": "function"
    },
    {
      "inputs": [],
      "name": "owner",
      "outputs": [
        {
          "internalType": "address",
          "name": "",
          "type": "address"
        }
      ],
      "stateMutability": "view",
      "type": "function"
    },
    {
      "inputs": [],
      "name": "rate",
      "outputs": [
        {
          "internalType": "uint256",
          "name": "",
          "type": "uint256"
        }
      ],
      "stateMutability": "view",
      "type": "function"
    },
    {
      "inputs": [],
      "name": "renounceOwnership",
      "outputs": [],
      "stateMutability": "nonpayable",
      "type": "function"
    },
    {
      "inputs": [],
      "name": "token",
      "outputs": [
        {
          "internalType": "contract IERC20",
          "name": "",
          "type": "address"
        }
      ],
      "stateMutability": "view",
      "type": "function"
    },
    {
      "inputs": [
        {
          "internalType": "address",
          "name": "newOwner",
          "type": "address"
        }
      ],
      "name": "transferOwnership",
      "outputs": [],
      "stateMutability": "nonpayable",
      "type": "function"
    },
    {
      "inputs": [],
      "name": "wallet",
      "outputs": [
        {
          "internalType": "address payable",
          "name": "",
          "type": "address"
        }
      ],
      "stateMutability": "view",
      "type": "function"
    },
    {
      "inputs": [
        {
          "internalType": "uint256",
          "name": "amount",
          "type": "uint256"
        }
      ],
      "name": "withdrawTokens",
      "outputs": [],
      "stateMutability": "nonpayable",
      "type": "function"
    }
  ],
  "bytecode": "0x608060405234801561001057600080fd5b506040516110b13803806110b183398181016040528101906100329190610402565b33600073ffffffffffffffffffffffffffffffffffffffff168173ffffffffffffffffffffffffffffffffffffffff16036100a55760006040517f1e4fbdf700000000000000000000000000000000000000000000000000000000815260040161009c9190610464565b60405180910390fd5b6100b48161026760201b60201c565b50600083116100f8576040517f08c379a00000000000000000000000000000000000000000000000000000000081526004016100ef906104dc565b60405180910390fd5b600073ffffffffffffffffffffffffffffffffffffffff168273ffffffffffffffffffffffffffffffffffffffff1603610167576040517f08c379a000000000000000000000000000000000000000000000000000000000815260040161015e90610548565b60405180910390fd5b600073ffffffffffffffffffffffffffffffffffffffff168173ffffffffffffffffffffffffffffffffffffffff16036101d6576040517f08c379a00000000000000000000000000000000000000000000000000000000081526004016101cd906105b4565b60405180910390fd5b8260028190555081600360006101000a81548173ffffffffffffffffffffffffffffffffffffffff021916908373ffffffffffffffffffffffffffffffffffffffff16021790555080600160006101000a81548173ffffffffffffffffffffffffffffffffffffffff021916908373ffffffffffffffffffffffffffffffffffffffff1602179055505050506105d4565b60008060009054906101000a900473ffffffffffffffffffffffffffffffffffffffff169050816000806101000a81548173ffffffffffffffffffffffffffffffffffffffff021916908373ffffffffffffffffffffffffffffffffffffffff1602179055508173ffffffffffffffffffffffffffffffffffffffff168173ffffffffffffffffffffffffffffffffffffffff167f8be0079c531659141344cd1fd0a4f28419497f9722a3daafe3b4186f6b6457e060405160405180910390a35050565b600080fd5b6000819050919050565b61034381610330565b811461034e57600080fd5b50565b6000815190506103608161033a565b92915050565b600073ffffffffffffffffffffffffffffffffffffffff82169050919050565b600061039182610366565b9050919050565b6103a181610386565b81146103ac57600080fd5b50565b6000815190506103be81610398565b92915050565b60006103cf82610386565b9050919050565b6103df816103c4565b81146103ea57600080fd5b50565b6000815190506103fc816103d6565b92915050565b60008060006060848603121561041b5761041a61032b565b5b600061042986828701610351565b935050602061043a868287016103af565b925050604061044b868287016103ed565b9150509250925092565b61045e81610386565b82525050565b60006020820190506104796000830184610455565b92915050565b600082825260208201905092915050565b7f52617465206d75737420626520706f7369746976650000000000000000000000600082015250565b60006104c660158361047f565b91506104d182610490565b602082019050919050565b600060208201905081810360008301526104f5816104b9565b9050919050565b7f496e76616c69642077616c6c6574206164647265737300000000000000000000600082015250565b600061053260168361047f565b915061053d826104fc565b602082019050919050565b6000602082019050818103600083015261056181610525565b9050919050565b7f496e76616c696420746f6b656e20616464726573730000000000000000000000600082015250565b600061059e60158361047f565b91506105a982610568565b602082019050919050565b600060208201905081810360008301526105cd81610591565b9050919050565b610ace806105e36000396000f3fe60806040526004361061007b5760003560e01c80638da5cb5b1161004e5780638da5cb5b14610116578063d0febe4c14610141578063f2fde38b1461014b578063fc0c546a146101745761007b565b80632c4e722e14610080578063315a095d146100ab578063521eb273146100d4578063715018a6146100ff575b600080fd5b34801561008c57600080fd5b5061009561019f565b6040516100a291906106d0565b60405180910390f35b3480156100b757600080fd5b506100d260048036038101906100cd919061071c565b6101a5565b005b3480156100e057600080fd5b506100e9610258565b6040516100f6919061078a565b60405180910390f35b34801561010b57600080fd5b5061011461027e565b005b34801561012257600080fd5b5061012b610292565b60405161013891906107c6565b60405180910390f35b6101496102bb565b005b34801561015757600080fd5b50610172600480360381019061016d919061080d565b6104b8565b005b34801561018057600080fd5b5061018961053e565b6040516101969190610899565b60405180910390f35b60025481565b6101ad610564565b600160009054906101000a900473ffffffffffffffffffffffffffffffffffffffff1673ffffffffffffffffffffffffffffffffffffffff1663a9059cbb6101f3610292565b836040518363ffffffff1660e01b81526004016102119291906108b4565b6020604051808303816000875af1158015610230573d6000803e3d6000fd5b505050506040513d601f19601f820116820180604052508101906102549190610915565b5050565b600360009054906101000a900473ffffffffffffffffffffffffffffffffffffffff1681565b610286610564565b61029060006105eb565b565b60008060009054906101000a900473ffffffffffffffffffffffffffffffffffffffff16905090565b6000600254346102cb9190610971565b9050600160009054906101000a900473ffffffffffffffffffffffffffffffffffffffff1673ffffffffffffffffffffffffffffffffffffffff166370a08231306040518263ffffffff1660e01b815260040161032891906107c6565b602060405180830381865afa158015610345573d6000803e3d6000fd5b505050506040513d601f19601f8201168201806040525081019061036991906109c8565b8111156103ab576040517f08c379a00000000000000000000000000000000000000000000000000000000081526004016103a290610a78565b60405180910390fd5b600160009054906101000a900473ffffffffffffffffffffffffffffffffffffffff1673ffffffffffffffffffffffffffffffffffffffff1663a9059cbb33836040518363ffffffff1660e01b81526004016104089291906108b4565b6020604051808303816000875af1158015610427573d6000803e3d6000fd5b505050506040513d601f19601f8201168201806040525081019061044b9190610915565b50600360009054906101000a900473ffffffffffffffffffffffffffffffffffffffff1673ffffffffffffffffffffffffffffffffffffffff166108fc349081150290604051600060405180830381858888f193505050501580156104b4573d6000803e3d6000fd5b5050565b6104c0610564565b600073ffffffffffffffffffffffffffffffffffffffff168173ffffffffffffffffffffffffffffffffffffffff16036105325760006040517f1e4fbdf700000000000000000000000000000000000000000000000000000000815260040161052991906107c6565b60405180910390fd5b61053b816105eb565b50565b600160009054906101000a900473ffffffffffffffffffffffffffffffffffffffff1681565b61056c6106af565b73ffffffffffffffffffffffffffffffffffffffff1661058a610292565b73ffffffffffffffffffffffffffffffffffffffff16146105e9576105ad6106af565b6040517f118cdaa70000000000000000000000000000000000000000000000000000000081526004016105e091906107c6565b60405180910390fd5b565b60008060009054906101000a900473ffffffffffffffffffffffffffffffffffffffff169050816000806101000a81548173ffffffffffffffffffffffffffffffffffffffff021916908373ffffffffffffffffffffffffffffffffffffffff1602179055508173ffffffffffffffffffffffffffffffffffffffff168173ffffffffffffffffffffffffffffffffffffffff167f8be0079c531659141344cd1fd0a4f28419497f9722a3daafe3b4186f6b6457e060405160405180910390a35050565b600033905090565b6000819050919050565b6106ca816106b7565b82525050565b60006020820190506106e560008301846106c1565b92915050565b600080fd5b6106f9816106b7565b811461070457600080fd5b50565b600081359050610716816106f0565b92915050565b600060208284031215610732576107316106eb565b5b600061074084828501610707565b91505092915050565b600073ffffffffffffffffffffffffffffffffffffffff82169050919050565b600061077482610749565b9050919050565b61078481610769565b82525050565b600060208201905061079f600083018461077b565b92915050565b60006107b082610749565b9050919050565b6107c0816107a5565b82525050565b60006020820190506107db60008301846107b7565b92915050565b6107ea816107a5565b81146107f557600080fd5b50565b600081359050610807816107e1565b92915050565b600060208284031215610823576108226106eb565b5b6000610831848285016107f8565b91505092915050565b6000819050919050565b600061085f61085a61085584610749565b61083a565b610749565b9050919050565b600061087182610844565b9050919050565b600061088382610866565b9050919050565b61089381610878565b82525050565b60006020820190506108ae600083018461088a565b92915050565b60006040820190506108c960008301856107b7565b6108d660208301846106c1565b9392505050565b60008115159050919050565b6108f2816108dd565b81146108fd57600080fd5b50565b60008151905061090f816108e9565b92915050565b60006020828403121561092b5761092a6106eb565b5b600061093984828501610900565b91505092915050565b7f4e487b7100000000000000000000000000000000000000000000000000000000600052601160045260246000fd5b600061097c826106b7565b9150610987836106b7565b9250828202610995816106b7565b915082820484148315176109ac576109ab610942565b5b5092915050565b6000815190506109c2816106f0565b92915050565b6000602082840312156109de576109dd6106eb565b5b60006109ec848285016109b3565b91505092915050565b600082825260208201905092915050565b7f4e6f7420656e6f75676820746f6b656e7320696e2074686520636f6e7472616360008201527f7400000000000000000000000000000000000000000000000000000000000000602082015250565b6000610a626021836109f5565b9150610a6d82610a06565b604082019050919050565b60006020820190508181036000830152610a9181610a55565b905091905056fea2646970667358221220d382efef64127c5552536b7ca3dc9c285644901f93220a87bfb59982b328b06864736f6c634300081b0033",
  "linkReferences": {},
  "deployedLinkReferences": {}
}